{
  "fileName": "C.sol",
  "contractName": "C",
  "source": "pragma solidity ^0.6.2;\n\ncontract C{\n\nfunction getMessage() public view returns(string memory){\n   return \"Contract has been deployed Successfully\";\n}\n\n}",
  "sourcePath": "contracts/C.sol",
  "abi": [
    {
      "inputs": [],
      "name": "getMessage",
      "outputs": [
        {
          "internalType": "string",
          "name": "",
          "type": "string"
        }
      ],
      "stateMutability": "view",
      "type": "function"
    }
  ],
  "bytecode": "0x608060405234801561001057600080fd5b50610128806100206000396000f3fe6080604052348015600f57600080fd5b506004361060285760003560e01c8063ce6d41de14602d575b600080fd5b603360ab565b6040518080602001828103825283818151815260200191508051906020019080838360005b8381101560715780820151818401526020810190506058565b50505050905090810190601f168015609d5780820380516001836020036101000a031916815260200191505b509250505060405180910390f35b60606040518060600160405280602781526020016100cc6027913990509056fe436f6e747261637420686173206265656e206465706c6f796564205375636365737366756c6c79a2646970667358221220cc823b4cd06464ff1d2bfdb5c14d7ae5146dd0e50b770e1fd307c8e1d15bd7e964736f6c634300060c0033",
  "compiler": {
    "name": "solc",
    "version": "0.6.12+commit.27d51765.Emscripten.clang",
    "optimizer": {
      "enabled": false,
      "runs": 200
    },
    "evmVersion": "petersburg"
  }
}